:020000020000FC
:100000000C94E7001895189518951895189518955B
:100010001895189518951895189518951895189578
:100020001895189518951895189518951895189568
:100030001895189518951895189518951895189558
:100040000C944C00189518951895189518951895B6
:100050001895189518951895189518951895189538
:1000600018951895189518958000820084008600D0
:1000700088008A008C008E00900092009400960008
:10008000A200A400A600A800AA00AC00AE00B00028
:10009000B200B400B600B8001895F999FECF12BDB1
:1000A00001BDF89A00B508950FE304B90FEF05B943
:1000B0000FE007B907EF08B900EE0AB90FEF0BB967
:1000C000F894A895009160000861009360000FE02B
:1000D0000093600000E010E0E0DF0093400108952D
:1000E0000C3008F046C0112319F108F042C0F2E0CC
:1000F0000F9FF001E859FF4F05901490F00109940B
:100100002D9808952C9808952B9808952A9808956D
:1001100029980895289808955F9808955E980895FD
:100120005D980895429808954198089540980895DB
:1001300000F5F2E00F9FF001E058FF4F059014909A
:10014000F00109942D9A08952C9A08952B9A0895F8
:100150002A9A0895299A0895289A08955F9A0895E9
:100160005E9A08955D9A0895429A0895419A089575
:10017000409A08959A938A9380E090E095DF03EC8B
:1001800019E001501040E9F700C00000A89509C02F
:1001900090E080E007EA11E601501040E9F700C066
:1001A0000000A895009140010023A1F790FB8C303E
:1001B00046F028F411E0082F93DF8395EBCF91E010
:1001C000E8CF30F710E0F7CF00008895FECF0FE3BF
:1001D0000DBF01E00EBFC0E2D1E00E94F900002394
:1001E00011F00E9409010E94BA000E94E4000C94E0
:1001F000E40001E0089520E006D0E9F70895259194
:1002000002D0E9F708952D9301501040202F212BA3
:10021000089586E492E0FC0105911491FC01329668
:10022000A591B491FC01349625913491422F432B32
:1002300019F0F901E4DF01C0DEDF069612E08C342C
:0C024000910748F3089501004001000000
:0400000300000000F9
:00000001FF
